:100000000C942A000C9423010C9434000C943400BA
:100010000C9434000C9434000C9434000C94340090
:100020000C9434000C9434000C9434000C94340080
:100030000C9434000C9434000C9434000C94340070
:100040000C9434000C9434000C9434000C94340060
:100050000C94340011241FBECFE5D8E0DEBFCDBF25
:100060000E941D010C9448010C9400004130B9F528
:100070008431A1F018F48A3031F008958E31C9F03E
:10008000883211F108952AB381E090E002C0880F10
:10009000991F6A95E2F7822B8ABB089527B381E006
:1000A00090E002C0880F991F6A95E2F7822B87BB08
:1000B000089524B381E090E002C0880F991F6A95EB
:1000C000E2F7822B84BB089521B381E090E002C067
:1000D000880F991F6A95E2F7822B81BB0895411121
:1000E0003AC08431A9F018F48A3031F008958E3185
:1000F000D9F0883229F108952AB381E090E002C056
:10010000880F991F6A95E2F7809582238ABB08952C
:1001100027B381E090E002C0880F991F6A95E2F74B
:100120008095822387BB089524B381E090E002C0CC
:10013000880F991F6A95E2F78095822384BB089502
:1001400021B381E090E002C0880F991F6A95E2F721
:100150008095822381BB08958431A1F018F48A3000
:1001600031F008958E31C9F0883211F108952BB322
:1001700081E090E002C0880F991F6A95E2F782271C
:100180008BBB089528B381E090E002C0880F991FCF
:100190006A95E2F7822788BB089525B381E090E055
:1001A00002C0880F991F6A95E2F7822785BB0895E0
:1001B00022B381E090E002C0880F991F6A95E2F7B0
:1001C000822782BB08958FB780688FBF08950E94F1
:1001D000E3008BB780648BBF85B7836085BF0895CC
:1001E000813051F018F0823069F0089540E062E00B
:1001F0008EE10E943600089540E067E08EE10E94A3
:100200003600089540E063E088E20E9436000895D9
:10021000813049F018F0823059F0089562E08EE1A3
:100220000E94AC00089567E08EE10E94AC00089542
:1002300063E088E20E94AC00089580E00E94F00034
:100240000E94E700FFCF1F920F920FB60F9211246A
:100250002F933F934F935F936F937F938F939F93CE
:10026000AF93BF93EF93FF9380E00E940801FF914B
:10027000EF91BF91AF919F918F917F916F915F911E
:100280004F913F912F910F900FBE0F901F90189597
:04029000F894FFCF10
:00000001FF
